:020000020000FC
:0200000020C01E
:020034007BC18E
:1000400067C1509A589A519A599A529A5A9A539A01
:100050005B9A54985C9A55985D9A56985E9A579810
:100060005F9A219A299A239A2B9A259A2D9A249A53
:100070002C9A3A9A429A3B9A439A3998389859EB73
:1000800056BD03E005BD01E005BB01E000936E0035
:100090000FEE009385000FEF0093840003E00093C0
:1000A000810001E00093160001E000936F000FEF64
:1000B00000937E000FEF00937F0000E00093640048
:1000C00002EE00937A0001E600937C0000E00093CA
:1000D0007B0007C0F89440E0042E142E242E342E0A
:1000E000442ED1E0CFE040E128E088E760E018E06E
:1000F0005A91F3E0E0E6E60F08F4F395E80F08F410
:10010000F395549175E02B988894579508F42B9AA1
:100110002D982D9A7A95B9F788504A9541F701C0E4
:10012000D9CF121711F42B9A01C02B982D982D9A24
:100130001A95B9F740E188E72C9A2C9863952A958F
:10014000B1F6589A599A5A9A5B984C9B01C0C9CFFC
:1001500078945B9A40E090E028E0C8E110E5283010
:1001600011F40E94CD000E94090118E0121711F449
:100170002B9A01C02B982D982D9A1A95B9F72C9A85
:100180002C982A9559F7589A599A5A985B9A4C9BE9
:10019000A1CF5A9AC03021F2DFCF40917900463E7C
:1001A000B8F44C3DC0F4463CC8F4403BD0F44A3966
:1001B000D8F44438E0F44E36E8F44835F0F44234EC
:1001C000F8F44C3200F54E3108F551E842E008955C
:1001D00051E14DE008955EE14CE008955BE24BE0B3
:1001E000089557E34AE0089552E449E008955DE434
:1001F00048E0089557E547E0089551E646E0089540
:100200005AE645E0089552E744E008955AE743E08E
:100210000895442E183211F0103539F4F3E0E0EE71
:1002200033E0632E39E2732E00C00491093191F15D
:100230003196021719F002500217B9F4A4903196C2
:100240009A15B0F1A490A91698F13196A490319620
:10025000C49030E0832E39E2FA2CFC0CF91AF31624
:10026000D0F0C32ECA18C90E16C00750021719F0D5
:1002700002500217E9F4A49031969A15C8F0A490A0
:10028000A916B0F03196A4903196C490A70C31E035
:10029000832E01C012C031E0831611F4193268F0C8
:1002A0000A2D091B10174CF00C0D101718F105C082
:1002B0003796CA956A9409F0B8CF70E088E2B0E04A
:1002C000A0E01E32CCF418321CF4163008F014C032
:1002D000739583956D91A6307CF4683028F42617C9
:1002E000B9F7171739F0F4CF6750261789F71817A1
:1002F00009F0EECF2B9A01C02B982D982D9A1A95C4
:1003000031F030E06316C9F231F6349683CF0895A8
:100310005898599A5A9A5B9A4C9B03C0439A589A98
:100320001895439856BD199A589A189593956F93B6
:100330006FE6609385006FEF60938400012C122CB0
:10034000232C5898599A5A9A5B9A4C9B05C060E0A6
:10035000362E6F91589A1895342C6F91589A18959B
:10036000000808080F09090F0009090A0E09090EFB
:10037000000F08080E08080F000F01010F08080FF2
:10038000000F01010F08080F00000000000000002E
:10039000000909090F09090600000000000000001B
:1003A000000404040404040F0006090909090906ED
:1003B0000000000000000000000F01010F08080FFE
:1003C000000404040404040F000909090F090906C4
:1003D0000009090A0E09090E000404040404040FAC
:1003E0000F002A28020000000305322D050000003E
:1003F0000C0A363204000000190000000000000062
:00000001FF
