:020000020000FC
:0200000020C01E
:020034001CC1ED
:1000400008C1509A589A519A599A529A5A9A539A60
:100050005B9A54985C9A55985D9A56985E9A579810
:100060005F9A219A299A239A2B9A259A2D9A249A53
:100070002C9A3A9A429A3B9A439A3998389859EB73
:1000800056BD03E005BD01E005BB01E000936E0035
:100090000FEE009385000FEF0093840003E00093C0
:1000A000810001E00093160001E000936F000FEF64
:1000B00000937E000FEF00937F0000E00093640048
:1000C00002EE00937A0001E600937C0000E00093CA
:1000D0007B0007C0F89440E0042E142E242E342E0A
:1000E000442ED1E0CFE040E128E088E760E018E06E
:1000F0005A91F2E0E0EAE60F08F4F395E80F08F40D
:10010000F395549175E02B988894579508F42B9AA1
:100110002D982D9A7A95B9F788504A9541F712177C
:1001200011F42B9A01C02B982D982D9A1A95B9F796
:1001300040E188E72C9A2C9863952A95C1F6589A45
:10014000599A5A9A5B984C9B01C0CBCF78945B9A92
:1001500040E028E010E5283011F40E94C9000E9418
:1001600005011A95C1F718E0121711F42B9A01C076
:100170002B982D982D9A1A95B9F72C9A2C982A9588
:1001800049F7589A599A5A985B9A4C9BA3CF5A9A16
:10019000E0CF40917900463EB8F44C3DC0F4463C77
:1001A000C8F4403BD0F44A39D8F44438E0F44E3631
:1001B000E8F44835F0F44234F8F44C3200F54E31AE
:1001C00008F551E842E0089551E14DE008955EE1FF
:1001D0004CE008955BE24BE0089557E34AE0089550
:1001E00052E449E008955DE448E0089557E547E0AA
:1001F000089551E646E008955AE645E0089552E72D
:1002000044E008955AE743E00895442E71E089E2FE
:10021000B0E0A0E06D91683028F4261759F4171764
:1002200039F008C06750261729F4181709F002C0E2
:100230002B9A06C0753019F083957395EBCF2B98E8
:100240002D982D9A08952B9A01C02B982D982D9AB0
:1002500008955898599A5A9A5B9A4C9B03C0439AAE
:10026000589A1895439856BD199A589A18956F93AD
:100270006FE6609385006FEF60938400012C122C71
:10028000232C5898599A5A9A5B9A4C9B05C060E067
:10029000362E6F91589A1895342C6F91589A18955C
:1002A000000808080F09090F0009090A0E09090EBC
:1002B000000F08080E08080F000F01010F08080FB3
:1002C000000F01010F08080F0000000000000000EF
:1002D000000909090F0909060000000000000000DC
:1002E000000404040404040F0006090909090906AE
:1002F0000000000000000000000F01010F08080FBF
:10030000000404040404040F000909090F09090684
:100310000009090A0E09090E000404040404040F6C
:00000001FF
