:020000020000FC
:020000002AC014
:020040002BC0D3
:1000540028C022982A9A3898409A3998419A3A9A0C
:10006400429A3B9A439AF9EBF6BD04E005BD01E0E0
:1000740005BB01E000936E0008EF00937A0000E2F4
:1000840000937C0000E000937B00789400C03A98D1
:100094003B98FDCF13B012FA1EF406BC199A1895BA
:1000A400189508E7003210F010C018953B9A3A9A58
:1000B400429A439818953B9A3A9A439A42981895CB
:1000C4003B9A3A9A4398429818953B9A3A9A439A9B
:0600D400429A18951895F0
:00000001FF
