:020000020000FC
:0200000020C01E
:1000400056C2509A589A519A599A529A5A9A539A11
:100050005B9A54985C9A55985D9A56985E9A579810
:100060005F9A219A299A239A2B9A259A2D9A249A53
:100070002C9A3A9A429A3B9A439A3998389849EB83
:1000800046BD04E005BD01E005BB01E000936E0044
:100090000FEF00937E000FEF00937F0000E00093CE
:1000A000640002EE00937A0000E600937C0000E01A
:1000B00000937B00789400C028E010E52B9A1B9AEF
:1000C0003A95E9F70E947500E9F718E0121711F464
:1000D0002B9A01C02B982D982D9A1A95B9F72C9828
:1000E0002C9A2C982A9549F7E7CF283061F50E9481
:1000F0005202E82FF92F80E0F33060F0F43038F04E
:100100007FE0FF977A95E9F7F7978395F5CFE83E7B
:1001100008F0F6CFF296F29670E0F297F297F03090
:1001200011F4E43610F07395F8CF3A9660E0EA5097
:10013000EA3010F06395FBCFC0E03196E150E0303B
:1001400011F0C395FBCF5C2FA5E40E94F600B130FF
:1001500099F0562FAFE30E94F600B13069F0572FA7
:10016000A9E30E94F600B130D1F1582FA3E30E9419
:10017000F600B130A1F101C032C0273049F126307C
:1001800001F12530B9F0243071F0233029F0173413
:1001900031F11B3421F125C0173409F1103509F173
:1001A0001B34ECF41EC01E34D1F01C34D4F41734CC
:1001B000B4F417C0173499F01B3489F01D3479F06A
:1001C00010C0173461F01B3451F01C3441F009C0E9
:1001D000103539F0173419F01B340CF402C02B9A87
:1001E00001C02B982D982D9A1A950895503099F0AA
:1001F0005130A1F05230A9F05330B1F05430B9F081
:100200005530C1F05630C9F05730D1F05830D9F0E0
:100210005930E1F008950E94290108950E943E019D
:1002200008950E944F0108950E94790108950E9447
:10023000940108950E94B40108950E94D601089582
:100240000E94F90108950E94160208950E942D024D
:1002500008959A2F273041F0213031F0191751F0CD
:100260009450191739F008C0191734F4935019171E
:100270000CF402C0B1E001C0B2E008959A2F925090
:10028000223019F0191739F008C0191721F09150D0
:10029000191709F002C0B1E001C0B2E008959A2F29
:1002A000213051F0273071F02430E0F0243091F00B
:1002B00094501917D1F01BC01917CCF4945019178A
:1002C000A4F415C001E0900F19178CF4955019177C
:1002D00064F40DC001E0900F19174CF494501917F5
:1002E00024F405C0191709F002C0B1E001C0B2E062
:1002F00008959A2F213039F0243059F0273019F021
:10030000191771F00FC019176CF49450191744F4B1
:1003100009C0191729F034F4945019170CF402C0CD
:10032000B1E001C0B2E008959A2F253044F42430A2
:1003300051F0233071F09450191791F013C092507E
:10034000191771F00FC019176CF49450191744F471
:1003500009C09250191721F09250191709F002C0E4
:10036000B1E001C0B2E008959A2F213049F0243065
:10037000A8F0243069F0273059F0191799F014C00B
:10038000191781F0191784F4945019175CF40CC0F4
:10039000191754F4945019172CF406C094501917D7
:1003A00009F002C0B1E001C0B2E008959A2F2130F7
:1003B00081F02430A1F0273061F0253030F019179A
:1003C000A1F09450191789F012C09450191769F0D0
:1003D0000EC0191764F4935019173CF408C019178C
:1003E00034F4945019170CF402C0B1E001C0B2E02B
:1003F00008959A2F213041F0223069F0243070F0B6
:100400009250191779F010C0191761F06CF49450DC
:10041000191744F409C0191729F006C0915019178B
:1004200009F002C0B1E001C0B2E008959A2F213076
:1004300051F0273041F0243031F0191751F0945029
:10044000191739F008C0191734F4935019170CF420
:1004500002C0B1E001C0B2E008959A2F213089F0C6
:10046000273079F0243099F0253028F0263019F023
:100470001917A1F015C0191789F09450191771F0C8
:100480000FC019176CF49350191744F409C01917C9
:1004900029F034F4935019170CF402C0B1E001C0F4
:1004A000B2E0089580E090E0403001F16AE752E167
:1004B000742F7095A0E0B1E0671740F0671B93952B
:1004C000FBCF70341CF4770FBB0FFBCF603061F0B3
:1004D000571B20F088948B0F28F0F8CFA13031F013
:1004E0006A95F8CF9395F9CFA1E0F2CF0895589887
:1004F000599A5A9A5B9A4C9B03C0439A40E01895CC
:0C05000043984091790046BD199A189567
:00000001FF
