:020000020000FC
:0200000020C01E
:10004000A8C0509A589A519A599A529A5A9A539AC1
:100050005B9A54985C9A55985D9A56985E9A579810
:100060005F9A219A299A239A2B9A259A2D9A249A53
:100070002C9A3A9A429A3B9A439A3998389859EB73
:1000800056BD03E005BD01E005BB01E000936E0035
:100090000FEF00937E000FEF00937F0000E00093CE
:1000A000640002EE00937A0001E600937C0000E019
:1000B00000937B00789440E000C028E010E52830F1
:1000C00011F40E9477000E94B3001A95C1F718E05E
:1000D000121711F42B9A01C02B982D982D9A1A956E
:1000E000B9F72C982C9A2C982A9541F7E6CF409195
:1000F0007900463EB8F44C3DC0F4463CC8F4403B61
:10010000D0F44A39D8F44438E0F44E36E8F44835AF
:10011000F0F44234F8F44C3200F54E3108F551E871
:1001200042E0089551E14DE008955EE14CE008950C
:100130005BE24BE0089557E34AE0089552E449E05A
:1001400008955DE448E0089557E547E0089551E6D5
:1001500046E008955AE645E0089552E744E00895E0
:100160005AE743E00895642F683028F4261769F4AD
:10017000163048F00AC06750261739F4193228F0B3
:100180001E3208F002C02B9A01C02B982D982D9A90
:1001900008955898599A5A9A5B9A4C9B02C0439A70
:0A01A0001895439856BD199A18955A
:00000001FF
