:020000020000FC
:0200000020C01E
:1000400061C0509A589A519A599A529A5A9A539A08
:100050005B9A54985C9A55985D9A56985E9A579810
:100060005F9A219A299A239A2B9A259A2D9A249A53
:100070002C9A3A9A429A3B9A439A3998389849EB83
:1000800046BD04E005BD01E005BB01E000936E0044
:100090000FEF00937E000FEF00937F0000E00093CE
:1000A000640002EE00937A0000E600937C0000E01A
:1000B00000937B00789440E000C028E010E52B9A84
:1000C0001B9A3A95E9F70E947600E9F718E01217B3
:1000D00011F42B9A01C02B982D982D9A1A95B9F7E7
:1000E0002C982C9A2C982A9549F7E7CF241729F4B5
:1000F000183208F002C02B9A01C02B982D982D9A27
:100100001A9508955898599A5A9A5B9A4C9B03C02D
:10011000439A40E018954398409179004631C8F0E1
:100120004C32E0F04234F8F0483510F14E3628F108
:10013000443840F14A3958F1403B70F1463C88F16F
:100140004C3DA0F1423FB8F15091810040910D002B
:1001500037C0509111004091010032C050911E00F3
:10016000409102002DC050912B004091030028C007
:10017000509137004091040023C0509142004091BB
:1001800005001EC050914D004091060019C05091CD
:1001900057004091070014C0509161004091080041
:1001A0000FC050916A0040910A000AC0509172003D
:1001B00040910B0005C050917A0040910C0000C0A6
:0601C00056BD199A1895C6
:00000001FF
