:020000020000FC
:0200000020C01E
:0200340003C106
:10004000EFC0509A589A519A599A529A5A9A539A7A
:100050005B9A54985C9A55985D9A56985E9A579810
:100060005F9A219A299A239A2B9A259A2D9A249A53
:100070002C9A3A9A429A3B9A439A3998389859EB73
:1000800056BD03E005BD01E005BB01E000936E0035
:100090000FEE009385000FEF0093840003E00093C0
:1000A000810001E00093160001E000936F000FEF64
:1000B00000937E000FEF00937F0000E00093640048
:1000C00002EE00937A0001E600937C0000E00093CA
:1000D0007B0007C0F89440E0042E142E242E342E0A
:1000E000442E28E010E50E940A011A95E1F718E075
:1000F000121711F42B9A01C02B982D982D9A1A954E
:10010000B9F72C982C9A2C982A9561F7589A599AF5
:100110005A9A5B984C9B01C0E4CF78945B9A28E094
:1001200010E5283011F40E94B0000E94EC001A95EE
:10013000C1F718E0121711F42B9A01C02B982D98D3
:100140002D9A1A95B9F72C982C9A2C982A9541F744
:10015000589A599A5A985B9A4C9BBCCF5A9ADFCFBF
:1001600040917900463EB8F44C3DC0F4463CC8F49A
:10017000403BD0F44A39D8F44438E0F44E36E8F441
:100180004835F0F44234F8F44C3200F54E3108F5BD
:1001900051E842E0089551E14DE008955EE14CE000
:1001A00008955BE24BE0089557E34AE0089552E476
:1001B00049E008955DE448E0089557E547E0089573
:1001C00051E646E008955AE645E0089552E744E0D6
:1001D00008955AE743E00895442E71E089E2B0E0C3
:1001E000A0E06D91683028F4261759F4171739F0FC
:1001F00008C06750261729F4181709F002C02B9A77
:1002000006C0753019F083957395EBCF2B982D9818
:100210002D9A08952B9A01C02B982D982D9A089508
:100220005898599A5A9A5B9A4C9B03C0439A589A89
:100230001895439856BD199A589A18956F936FE67A
:10024000609385006FEF60938400012C122C232CA7
:100250005898599A5A9A5B9A4C9B05C060E0362E82
:0E0260006F91589A1895342C6F91589A1895F2
:00000001FF
