:020000020000FC
:0200000020C01E
:02003400FEC10B
:10004000EAC1509A589A519A599A529A5A9A539A7E
:100050005B9A54985C9A55985D9A56985E9A579810
:100060005F9A219A299A239A2B9A259A2D9A249A53
:100070002C9A3A9A429A3B9A439A3998389859EB73
:1000800056BD03E005BD01E005BB01E000936E0035
:100090000FEE009385000FEF0093840003E00093C0
:1000A000810001E00093160001E000936F000FEF64
:1000B00000937E000FEF00937F0000E00093640048
:1000C00002EE00937A0001E600937C0000E00093CA
:1000D0007B0007C0F89440E0042E142E242E342E0A
:1000E000442ED1E0CFE040E128E088E760E018E06E
:1000F0005A91F4E0EAE7E60F08F4F395E80F08F404
:10010000F395549175E02B988894579508F42B9AA1
:100110002D982D9A7A95B9F788504A9541F701C0E4
:10012000D9CF121711F42B9A01C02B982D982D9A24
:100130001A95B9F740E188E72C9A2C9863952A958F
:10014000B1F6589A599A5A9A5B984C9B01C0C9CFFC
:1001500078945B9A40E090E0592EE92E28E0C0E5C3
:1001600010E5213011F40E9442010E947E0118E046
:10017000121711F42B9A01C02B982D982D9A1A95CD
:10018000B9F72C9A2C982A9559F7C03041F0589A13
:10019000599A5A985B9A4C9B9DCF5A9ADFCFF89404
:1001A00000E0202E302E402E052D043618F0045687
:1001B0002394FBCF0A3018F00A503394FBCF003061
:1001C00019F001504394FBCF38E0239E202C339E3E
:1001D000302C439E402CD1E0CFE040E128E088E283
:1001E00060E018E05A9175E04C3038F5493068F419
:1001F000473018F5F4E0EAEFE60F08F4F395E80F5E
:1002000008F4F3955491885019C0F5E0EAE2E60F3E
:1002100008F4F395493029F4E20D08F4F39554916C
:100220000DC04A3029F4E30D08F4F395549106C04B
:10023000E40D08F4F395549101C050E02B98889494
:10024000579508F42B9A2D982D9A7A95B9F74A95D7
:1002500041F600C0121711F42B9A01C02B982D986B
:100260002D9A1A95B9F740E188E22C9A2C9863955B
:100270002A9539F4589A599A5A985B9A4C9B2ACFE6
:10028000AACFAFCF40917900463EB8F44C3DC0F4C0
:10029000463CC8F4403BD0F44A39D8F44438E0F442
:1002A0004E36E8F44835F0F44234F8F44C3200F5B8
:1002B0004E3108F551E842E0089551E14DE00895CE
:1002C0005EE14CE008955BE24BE0089557E34AE0BD
:1002D000089552E449E008955DE448E0089557E543
:1002E00047E0089551E646E008955AE645E008954E
:1002F00052E744E008955AE743E00895442E183247
:1003000011F0103539F4F5E0EAE735E0632E38E214
:10031000732E00C00491093141F0021719F0025008
:10032000021731F430E0832E0DC030E0632E44C05C
:10033000039503950750021719F002500217D1F4E4
:1003400031E0832E3196A49031969A15A0F0A490B6
:10035000A91688F03196A4903196C490BC2CFA2C42
:10036000FC0CF91AD72CD394FD1450F0F718BF18D1
:10037000B39406C032963696CA956A94E9F0CACF0D
:1003800031E0831609F4A70C31E0831619F4193211
:1003900098F002C0193280F40A2D091B101764F07E
:1003A0000C0D101748F4BA94153019F5E22E831687
:1003B00001F537E0E30E1DC070E088E2B0E0A0E098
:1003C0001E32CCF418321CF4163008F014C07395A9
:1003D00083956D91A6307CF4683028F42617B9F720
:1003E000171739F0F4CF6750261789F7181709F057
:1003F000EECF2B9A01C02B982D982D9A1A9551F07B
:10040000183231F030E06316B9F2B31611F43496B5
:1004100076CFBACF08955898599A5A9A5B9A4C9BBE
:1004200003C0439A589A1895439856BD199A589AFA
:10043000189593956F93FF926FE6609385006FEF29
:1004400060938400012C122C232C60E05898599A58
:100450005A9A5B9A4C9B05C0362E6F91FF90589A22
:100460001895FE2CF61621F0F394F41609F4539423
:10047000342CFF906F91589A1895000808080E09BF
:10048000090E0009090A0E09090E000F08080E08D6
:10049000080F000E010106080807000E01010608FA
:1004A00008070000000000000000000909090F090A
:1004B0000906000000000000000000040404040419
:1004C000041F0006090909090906000000000000D0
:1004D0000000000E010106080807000404040404DB
:1004E000041F000909090F0909060009090A0E0974
:1004F000090E000404040404041F000E0101060890
:10050000080700070808080808070006090909097C
:1005100009060009090A0E09090E000F08080E084D
:10052000080F00000800000008000006090909097A
:1005300009060002020202020602000F080402017C
:10054000010E000E01010701010E0002020F0A0850
:100550000808000E01010608080F000609090E0828
:100560000806000404040402010F00060909060934
:100570000906000601010709090609295651050067
:1005800000000B1E50460A0000000515413D040006
:1005900000000305322D050000000D002A2802008E
:0A05A0000000190000000000000038
:00000001FF
