:020000020000FC
:0200000020C01E
:0200340084C185
:1000400070C1509A589A519A599A529A5A9A539AF8
:100050005B9A54985C9A55985D9A56985E9A579810
:100060005F9A219A299A239A2B9A259A2D9A249A53
:100070002C9A3A9A429A3B9A439A3998389859EB73
:1000800056BD03E005BD01E005BB01E000936E0035
:100090000FEE009385000FEF0093840003E00093C0
:1000A000810001E00093160001E000936F000FEF64
:1000B00000937E000FEF00937F0000E00093640048
:1000C00002EE00937A0001E600937C0000E00093CA
:1000D0007B0007C0F89440E0042E142E242E342E0A
:1000E000442ED1E0CFE040E128E088E760E018E06E
:1000F0005A91F3E0E2E7E60F08F4F395E80F08F40D
:10010000F395549175E02B988894579508F42B9AA1
:100110002D982D9A7A95B9F788504A9541F701C0E4
:10012000D9CF121711F42B9A01C02B982D982D9A24
:100130001A95B9F740E188E72C9A2C9863952A958F
:10014000B1F6589A599A5A9A5B984C9B01C0C9CFFC
:1001500078945B9A40E090E028E0C0E510E5283014
:1001600011F40E94CE000E940A0118E0121711F447
:100170002B9A01C02B982D982D9A1A95B9F72C9887
:100180002C9A2C982A9551F7C03051F2589A599AC6
:100190005A985B9A4C9B9ECF5A9ADECF4091790039
:1001A000463EB8F44C3DC0F4463CC8F4403BD0F465
:1001B0004A39D8F44438E0F44E36E8F44835F0F4DF
:1001C0004234F8F44C3200F54E3108F551E842E083
:1001D000089551E14DE008955EE14CE008955BE241
:1001E0004BE0089557E34AE0089552E449E008954A
:1001F0005DE448E0089557E547E0089551E646E09C
:1002000008955AE645E0089552E744E008955AE714
:1002100043E00895442E183211F0103539F4F3E01C
:10022000E2EF35E0632E38E2732E00C0049109310D
:1002300071F1021719F00250021781F43196A4905F
:1002400031969A15D0F1A490A916B8F13196A490E0
:100250003196C490BC2C30E0832E1DC003950395CD
:100260000750021719F00250021731F53196A49089
:1002700031969A1510F1A490A916F8F03196A49031
:100280003196C490BC2CA70C31E0832E04C030E022
:10029000632E18C0C0CF31E0831619F4193290F0E4
:1002A00002C0193278F40A2D091B10175CF00C0DEE
:1002B000101740F4BA9424C032963696CA956A94C0
:1002C00009F0B4CF70E088E2B0E0A0E01E32D4F4D0
:1002D00018321CF4163008F015C0739583956D9193
:1002E000A63084F4683028F42617B9F7171741F0C0
:1002F000F4CF6750261789F7181711F0EECFCBCF40
:100300002B9A01C02B982D982D9A1A9549F01832E6
:1003100009F230E06316B1F2B31689F734967BCF59
:1003200008955898599A5A9A5B9A4C9B03C0439ADD
:10033000589A1895439856BD199A589A18959395B6
:100340006F936FE6609385006FEF60938400012CDC
:10035000122C232C5898599A5A9A5B9A4C9B05C098
:1003600060E0362E6F91589A1895342C6F91589AF8
:100370001895000808080E09090E0009090A0E0957
:10038000090E000F08080E08080F000E01010608EC
:100390000807000E01010608080700000000000021
:1003A0000000000909090F0909060000000000000B
:1003B0000000000404040404041F000609090909DC
:1003C00009060000000000000000000E0101060800
:1003D0000807000404040404041F000909090F09A4
:1003E00009060009090A0E09090E000404040404A0
:1003F000041F09295651050000000B1E50460A0033
:1004000000000515413D040000000305322D0500E4
:1004100000000D002A280200000019000000000062
:020420000000DA
:00000001FF
