:020000020000FC
:020000002AC014
:0200400039C2C3
:100054003BC2509A589A519A599A529A5A9A539A18
:100064005B9A54985C9A55985D9A56985E9A5798FC
:100074005F9A219A299A22982A9A239A2B9A259A46
:100084002D9A249A2C9A3A9A429A3B9A439A3998EE
:10009400389849EB46BD04E005BD01E005BB01E02D
:1000A40000936E000FEF00937E000FEF00937F002C
:1000B40000E0009364000AEE00937A0000E60093E7
:1000C4007C0000E000937B00789400C028E010E5F9
:1000D4002B9A322F1B9A3A95E9F70E948200E9F78E
:1000E40018E0121711F42B9A01C02B982D982D9A11
:1000F4001A95B9F72C982C9A2C982A9541F7E6CFA3
:100104000E945102E42FF0E080E0F350F0301AF046
:10011400E85E8395FACF74E6E70F70E0E456E436C0
:1001240010F07395FBCF6AE0E60F60E0EA50EA3026
:1001340010F06395FBCF50E0E150E03012F053959E
:10014400FBCFA6E40E94F500B13099F0562FA1E44C
:100154000E94F500B13069F0572FACE30E94F5001E
:10016400B130D1F1582FA7E30E94F500B130A1F1CD
:1001740001C032C0273049F1263001F12530B9F0F1
:10018400243071F0233029F0173431F11B3421F17C
:1001940025C0173409F1103509F11B34ECF41EC0E5
:1001A4001E34D1F01C34D4F41734B4F417C017340B
:1001B40099F01B3489F01D3479F010C0173461F0C4
:1001C4001B3451F01C3441F009C0103539F0173498
:1001D40019F01B340CF402C02B9A01C02B982D98F3
:1001E4002D9A1A951895503099F05130A1F052304B
:1001F400A9F05330B1F05430B9F05530C1F0563055
:10020400C9F05730D1F05830D9F05930E1F0189591
:100214000E94280118950E943D0118950E944E01E4
:1002240018950E94780118950E94930118950E94D0
:10023400B30118950E94D50118950E94F8011895EC
:100244000E94150218950E942C0218959A2F2730A7
:1002540041F0213031F0191751F09450191739F049
:1002640008C0191734F4935019170CF402C0B1E004
:1002740001C0B2E018959A2F9250223019F0191744
:1002840039F008C0191721F09150191709F002C06C
:10029400B1E001C0B2E018959A2F213051F0273017
:1002A40071F02430E0F0243091F094501917D1F01B
:1002B4001BC01917CCF494501917A4F415C001E00D
:1002C400900F19178CF49550191764F40DC001E0C0
:1002D400900F19174CF49450191724F405C01917EA
:1002E40009F002C0B1E001C0B2E018959A2F2130A4
:1002F40039F0243059F0273019F0191771F00FC074
:1003040019176CF49450191744F409C0191729F0FB
:1003140034F4945019170CF402C0B1E001C0B2E0F7
:1003240018959A2F253044F4243051F0233071F07D
:100334009450191791F013C09250191771F00FC00F
:1003440019176CF49450191744F409C092501917F2
:1003540021F09250191709F002C0B1E001C0B2E0D7
:1003640018959A2F213049F02430A8F0243069F0F0
:10037400273059F0191799F014C0191781F019177B
:1003840084F4945019175CF40CC0191754F4945065
:1003940019172CF406C09450191709F002C0B1E0E3
:1003A40001C0B2E018959A2F213081F02430A1F0D9
:1003B400273061F0253030F01917A1F09450191747
:1003C40089F012C09450191769F00EC0191764F41B
:1003D400935019173CF408C0191734F494501917A2
:1003E4000CF402C0B1E001C0B2E018959A2F21309C
:1003F40041F0223069F0243070F09250191779F0EE
:1004040010C0191761F06CF49450191744F409C022
:10041400191729F006C09150191709F002C0B1E06C
:1004240001C0B2E018959A2F213051F0273041F0E5
:10043400243031F0191751F09450191739F008C0CD
:10044400191734F4935019170CF402C0B1E001C029
:10045400B2E018959A2F213089F0273079F02430B2
:1004640099F0253028F0263019F01917A1F015C09D
:10047400191789F09450191771F00FC019176CF4FB
:100484009350191744F409C0191729F034F4935000
:1004940019170CF402C0B1E001C0B2E01895542F52
:1004A400509551957AEF579F01941194909D18950A
:1004B4005898599A5A9A5B9A4C9B02C0439A189539
:1004C400439846BD199A1895409178004091790057
:0204D400189579
:00000001FF
